{
  "_format": "hh-sol-artifact-1",
  "contractName": "RestaurantManager",
  "sourceName": "contracts/RestaurantManager.sol",
  "abi": [
    {
      "inputs": [],
      "stateMutability": "nonpayable",
      "type": "constructor"
    },
    {
      "anonymous": false,
      "inputs": [
        {
          "indexed": true,
          "internalType": "uint256",
          "name": "id",
          "type": "uint256"
        },
        {
          "indexed": false,
          "internalType": "string",
          "name": "name",
          "type": "string"
        },
        {
          "indexed": false,
          "internalType": "uint256",
          "name": "price",
          "type": "uint256"
        },
        {
          "indexed": false,
          "internalType": "string",
          "name": "category",
          "type": "string"
        }
      ],
      "name": "MenuItemAdded",
      "type": "event"
    },
    {
      "anonymous": false,
      "inputs": [
        {
          "indexed": true,
          "internalType": "uint256",
          "name": "id",
          "type": "uint256"
        },
        {
          "indexed": false,
          "internalType": "string",
          "name": "name",
          "type": "string"
        },
        {
          "indexed": false,
          "internalType": "uint256",
          "name": "price",
          "type": "uint256"
        },
        {
          "indexed": false,
          "internalType": "bool",
          "name": "isAvailable",
          "type": "bool"
        }
      ],
      "name": "MenuItemUpdated",
      "type": "event"
    },
    {
      "anonymous": false,
      "inputs": [
        {
          "indexed": true,
          "internalType": "uint256",
          "name": "orderId",
          "type": "uint256"
        },
        {
          "indexed": true,
          "internalType": "address",
          "name": "customer",
          "type": "address"
        },
        {
          "indexed": false,
          "internalType": "uint256",
          "name": "totalAmount",
          "type": "uint256"
        },
        {
          "indexed": false,
          "internalType": "uint256",
          "name": "tableNumber",
          "type": "uint256"
        }
      ],
      "name": "OrderPlaced",
      "type": "event"
    },
    {
      "anonymous": false,
      "inputs": [
        {
          "indexed": true,
          "internalType": "uint256",
          "name": "orderId",
          "type": "uint256"
        },
        {
          "indexed": false,
          "internalType": "enum RestaurantManager.OrderStatus",
          "name": "newStatus",
          "type": "uint8"
        }
      ],
      "name": "OrderStatusUpdated",
      "type": "event"
    },
    {
      "anonymous": false,
      "inputs": [
        {
          "indexed": true,
          "internalType": "uint256",
          "name": "orderId",
          "type": "uint256"
        },
        {
          "indexed": true,
          "internalType": "address",
          "name": "customer",
          "type": "address"
        },
        {
          "indexed": false,
          "internalType": "uint256",
          "name": "amount",
          "type": "uint256"
        }
      ],
      "name": "PaymentReceived",
      "type": "event"
    },
    {
      "anonymous": false,
      "inputs": [
        {
          "indexed": true,
          "internalType": "uint256",
          "name": "reservationId",
          "type": "uint256"
        },
        {
          "indexed": true,
          "internalType": "address",
          "name": "customer",
          "type": "address"
        },
        {
          "indexed": false,
          "internalType": "uint256",
          "name": "tableId",
          "type": "uint256"
        },
        {
          "indexed": false,
          "internalType": "uint256",
          "name": "reservationTime",
          "type": "uint256"
        }
      ],
      "name": "ReservationMade",
      "type": "event"
    },
    {
      "anonymous": false,
      "inputs": [
        {
          "indexed": true,
          "internalType": "uint256",
          "name": "reservationId",
          "type": "uint256"
        },
        {
          "indexed": false,
          "internalType": "enum RestaurantManager.ReservationStatus",
          "name": "newStatus",
          "type": "uint8"
        }
      ],
      "name": "ReservationStatusUpdated",
      "type": "event"
    },
    {
      "anonymous": false,
      "inputs": [
        {
          "indexed": true,
          "internalType": "address",
          "name": "staffMember",
          "type": "address"
        }
      ],
      "name": "StaffAdded",
      "type": "event"
    },
    {
      "anonymous": false,
      "inputs": [
        {
          "indexed": true,
          "internalType": "address",
          "name": "staffMember",
          "type": "address"
        }
      ],
      "name": "StaffRemoved",
      "type": "event"
    },
    {
      "anonymous": false,
      "inputs": [
        {
          "indexed": true,
          "internalType": "uint256",
          "name": "tableId",
          "type": "uint256"
        },
        {
          "indexed": false,
          "internalType": "uint256",
          "name": "capacity",
          "type": "uint256"
        }
      ],
      "name": "TableAdded",
      "type": "event"
    },
    {
      "anonymous": false,
      "inputs": [
        {
          "indexed": true,
          "internalType": "uint256",
          "name": "tableId",
          "type": "uint256"
        },
        {
          "indexed": false,
          "internalType": "enum RestaurantManager.TableStatus",
          "name": "newStatus",
          "type": "uint8"
        }
      ],
      "name": "TableStatusUpdated",
      "type": "event"
    },
    {
      "inputs": [
        {
          "internalType": "string",
          "name": "_name",
          "type": "string"
        },
        {
          "internalType": "string",
          "name": "_description",
          "type": "string"
        },
        {
          "internalType": "uint256",
          "name": "_price",
          "type": "uint256"
        },
        {
          "internalType": "string",
          "name": "_category",
          "type": "string"
        }
      ],
      "name": "addMenuItem",
      "outputs": [],
      "stateMutability": "nonpayable",
      "type": "function"
    },
    {
      "inputs": [
        {
          "internalType": "address",
          "name": "_member",
          "type": "address"
        }
      ],
      "name": "addStaff",
      "outputs": [],
      "stateMutability": "nonpayable",
      "type": "function"
    },
    {
      "inputs": [
        {
          "internalType": "uint256",
          "name": "_capacity",
          "type": "uint256"
        }
      ],
      "name": "addTable",
      "outputs": [],
      "stateMutability": "nonpayable",
      "type": "function"
    },
    {
      "inputs": [
        {
          "internalType": "uint256[]",
          "name": "_itemIds",
          "type": "uint256[]"
        },
        {
          "internalType": "uint256[]",
          "name": "_quantities",
          "type": "uint256[]"
        }
      ],
      "name": "calculateOrderTotal",
      "outputs": [
        {
          "internalType": "uint256",
          "name": "total",
          "type": "uint256"
        }
      ],
      "stateMutability": "view",
      "type": "function"
    },
    {
      "inputs": [
        {
          "internalType": "address",
          "name": "",
          "type": "address"
        },
        {
          "internalType": "uint256",
          "name": "",
          "type": "uint256"
        }
      ],
      "name": "customerOrders",
      "outputs": [
        {
          "internalType": "uint256",
          "name": "",
          "type": "uint256"
        }
      ],
      "stateMutability": "view",
      "type": "function"
    },
    {
      "inputs": [
        {
          "internalType": "address",
          "name": "",
          "type": "address"
        },
        {
          "internalType": "uint256",
          "name": "",
          "type": "uint256"
        }
      ],
      "name": "customerReservations",
      "outputs": [
        {
          "internalType": "uint256",
          "name": "",
          "type": "uint256"
        }
      ],
      "stateMutability": "view",
      "type": "function"
    },
    {
      "inputs": [],
      "name": "getAllMenuItems",
      "outputs": [
        {
          "components": [
            {
              "internalType": "uint256",
              "name": "id",
              "type": "uint256"
            },
            {
              "internalType": "string",
              "name": "name",
              "type": "string"
            },
            {
              "internalType": "string",
              "name": "description",
              "type": "string"
            },
            {
              "internalType": "uint256",
              "name": "price",
              "type": "uint256"
            },
            {
              "internalType": "string",
              "name": "category",
              "type": "string"
            },
            {
              "internalType": "bool",
              "name": "isAvailable",
              "type": "bool"
            },
            {
              "internalType": "uint256",
              "name": "createdAt",
              "type": "uint256"
            }
          ],
          "internalType": "struct RestaurantManager.MenuItem[]",
          "name": "",
          "type": "tuple[]"
        }
      ],
      "stateMutability": "view",
      "type": "function"
    },
    {
      "inputs": [],
      "name": "getAllOrders",
      "outputs": [
        {
          "components": [
            {
              "internalType": "uint256",
              "name": "id",
              "type": "uint256"
            },
            {
              "internalType": "address",
              "name": "customer",
              "type": "address"
            },
            {
              "internalType": "uint256[]",
              "name": "itemIds",
              "type": "uint256[]"
            },
            {
              "internalType": "uint256[]",
              "name": "quantities",
              "type": "uint256[]"
            },
            {
              "internalType": "uint256",
              "name": "totalAmount",
              "type": "uint256"
            },
            {
              "internalType": "enum RestaurantManager.OrderStatus",
              "name": "status",
              "type": "uint8"
            },
            {
              "internalType": "uint256",
              "name": "tableNumber",
              "type": "uint256"
            },
            {
              "internalType": "uint256",
              "name": "createdAt",
              "type": "uint256"
            },
            {
              "internalType": "uint256",
              "name": "updatedAt",
              "type": "uint256"
            }
          ],
          "internalType": "struct RestaurantManager.Order[]",
          "name": "",
          "type": "tuple[]"
        }
      ],
      "stateMutability": "view",
      "type": "function"
    },
    {
      "inputs": [],
      "name": "getAllReservations",
      "outputs": [
        {
          "components": [
            {
              "internalType": "uint256",
              "name": "id",
              "type": "uint256"
            },
            {
              "internalType": "address",
              "name": "customer",
              "type": "address"
            },
            {
              "internalType": "uint256",
              "name": "tableId",
              "type": "uint256"
            },
            {
              "internalType": "uint256",
              "name": "partySize",
              "type": "uint256"
            },
            {
              "internalType": "uint256",
              "name": "reservationTime",
              "type": "uint256"
            },
            {
              "internalType": "enum RestaurantManager.ReservationStatus",
              "name": "status",
              "type": "uint8"
            },
            {
              "internalType": "string",
              "name": "customerName",
              "type": "string"
            },
            {
              "internalType": "string",
              "name": "contactInfo",
              "type": "string"
            }
          ],
          "internalType": "struct RestaurantManager.Reservation[]",
          "name": "",
          "type": "tuple[]"
        }
      ],
      "stateMutability": "view",
      "type": "function"
    },
    {
      "inputs": [],
      "name": "getAllTables",
      "outputs": [
        {
          "components": [
            {
              "internalType": "uint256",
              "name": "id",
              "type": "uint256"
            },
            {
              "internalType": "uint256",
              "name": "capacity",
              "type": "uint256"
            },
            {
              "internalType": "enum RestaurantManager.TableStatus",
              "name": "status",
              "type": "uint8"
            },
            {
              "internalType": "address",
              "name": "currentCustomer",
              "type": "address"
            }
          ],
          "internalType": "struct RestaurantManager.Table[]",
          "name": "",
          "type": "tuple[]"
        }
      ],
      "stateMutability": "view",
      "type": "function"
    },
    {
      "inputs": [],
      "name": "getAvailableTables",
      "outputs": [
        {
          "components": [
            {
              "internalType": "uint256",
              "name": "id",
              "type": "uint256"
            },
            {
              "internalType": "uint256",
              "name": "capacity",
              "type": "uint256"
            },
            {
              "internalType": "enum RestaurantManager.TableStatus",
              "name": "status",
              "type": "uint8"
            },
            {
              "internalType": "address",
              "name": "currentCustomer",
              "type": "address"
            }
          ],
          "internalType": "struct RestaurantManager.Table[]",
          "name": "",
          "type": "tuple[]"
        }
      ],
      "stateMutability": "view",
      "type": "function"
    },
    {
      "inputs": [],
      "name": "getContractBalance",
      "outputs": [
        {
          "internalType": "uint256",
          "name": "",
          "type": "uint256"
        }
      ],
      "stateMutability": "view",
      "type": "function"
    },
    {
      "inputs": [
        {
          "internalType": "uint256",
          "name": "_itemId",
          "type": "uint256"
        }
      ],
      "name": "getMenuItem",
      "outputs": [
        {
          "components": [
            {
              "internalType": "uint256",
              "name": "id",
              "type": "uint256"
            },
            {
              "internalType": "string",
              "name": "name",
              "type": "string"
            },
            {
              "internalType": "string",
              "name": "description",
              "type": "string"
            },
            {
              "internalType": "uint256",
              "name": "price",
              "type": "uint256"
            },
            {
              "internalType": "string",
              "name": "category",
              "type": "string"
            },
            {
              "internalType": "bool",
              "name": "isAvailable",
              "type": "bool"
            },
            {
              "internalType": "uint256",
              "name": "createdAt",
              "type": "uint256"
            }
          ],
          "internalType": "struct RestaurantManager.MenuItem",
          "name": "",
          "type": "tuple"
        }
      ],
      "stateMutability": "view",
      "type": "function"
    },
    {
      "inputs": [
        {
          "internalType": "uint256",
          "name": "_orderId",
          "type": "uint256"
        }
      ],
      "name": "getOrder",
      "outputs": [
        {
          "components": [
            {
              "internalType": "uint256",
              "name": "id",
              "type": "uint256"
            },
            {
              "internalType": "address",
              "name": "customer",
              "type": "address"
            },
            {
              "internalType": "uint256[]",
              "name": "itemIds",
              "type": "uint256[]"
            },
            {
              "internalType": "uint256[]",
              "name": "quantities",
              "type": "uint256[]"
            },
            {
              "internalType": "uint256",
              "name": "totalAmount",
              "type": "uint256"
            },
            {
              "internalType": "enum RestaurantManager.OrderStatus",
              "name": "status",
              "type": "uint8"
            },
            {
              "internalType": "uint256",
              "name": "tableNumber",
              "type": "uint256"
            },
            {
              "internalType": "uint256",
              "name": "createdAt",
              "type": "uint256"
            },
            {
              "internalType": "uint256",
              "name": "updatedAt",
              "type": "uint256"
            }
          ],
          "internalType": "struct RestaurantManager.Order",
          "name": "",
          "type": "tuple"
        }
      ],
      "stateMutability": "view",
      "type": "function"
    },
    {
      "inputs": [],
      "name": "getRestaurantStats",
      "outputs": [
        {
          "internalType": "uint256",
          "name": "totalMenuItems",
          "type": "uint256"
        },
        {
          "internalType": "uint256",
          "name": "totalOrders",
          "type": "uint256"
        },
        {
          "internalType": "uint256",
          "name": "totalTables",
          "type": "uint256"
        },
        {
          "internalType": "uint256",
          "name": "totalReservations",
          "type": "uint256"
        },
        {
          "internalType": "uint256",
          "name": "contractBalance",
          "type": "uint256"
        }
      ],
      "stateMutability": "view",
      "type": "function"
    },
    {
      "inputs": [
        {
          "internalType": "address",
          "name": "",
          "type": "address"
        }
      ],
      "name": "isStaff",
      "outputs": [
        {
          "internalType": "bool",
          "name": "",
          "type": "bool"
        }
      ],
      "stateMutability": "view",
      "type": "function"
    },
    {
      "inputs": [
        {
          "internalType": "uint256",
          "name": "_tableId",
          "type": "uint256"
        },
        {
          "internalType": "uint256",
          "name": "_partySize",
          "type": "uint256"
        },
        {
          "internalType": "uint256",
          "name": "_reservationTime",
          "type": "uint256"
        },
        {
          "internalType": "string",
          "name": "_customerName",
          "type": "string"
        },
        {
          "internalType": "string",
          "name": "_contactInfo",
          "type": "string"
        }
      ],
      "name": "makeReservation",
      "outputs": [],
      "stateMutability": "nonpayable",
      "type": "function"
    },
    {
      "inputs": [],
      "name": "menuItemCount",
      "outputs": [
        {
          "internalType": "uint256",
          "name": "",
          "type": "uint256"
        }
      ],
      "stateMutability": "view",
      "type": "function"
    },
    {
      "inputs": [
        {
          "internalType": "uint256",
          "name": "",
          "type": "uint256"
        }
      ],
      "name": "menuItems",
      "outputs": [
        {
          "internalType": "uint256",
          "name": "id",
          "type": "uint256"
        },
        {
          "internalType": "string",
          "name": "name",
          "type": "string"
        },
        {
          "internalType": "string",
          "name": "description",
          "type": "string"
        },
        {
          "internalType": "uint256",
          "name": "price",
          "type": "uint256"
        },
        {
          "internalType": "string",
          "name": "category",
          "type": "string"
        },
        {
          "internalType": "bool",
          "name": "isAvailable",
          "type": "bool"
        },
        {
          "internalType": "uint256",
          "name": "createdAt",
          "type": "uint256"
        }
      ],
      "stateMutability": "view",
      "type": "function"
    },
    {
      "inputs": [],
      "name": "orderCount",
      "outputs": [
        {
          "internalType": "uint256",
          "name": "",
          "type": "uint256"
        }
      ],
      "stateMutability": "view",
      "type": "function"
    },
    {
      "inputs": [
        {
          "internalType": "uint256",
          "name": "",
          "type": "uint256"
        }
      ],
      "name": "orders",
      "outputs": [
        {
          "internalType": "uint256",
          "name": "id",
          "type": "uint256"
        },
        {
          "internalType": "address",
          "name": "customer",
          "type": "address"
        },
        {
          "internalType": "uint256",
          "name": "totalAmount",
          "type": "uint256"
        },
        {
          "internalType": "enum RestaurantManager.OrderStatus",
          "name": "status",
          "type": "uint8"
        },
        {
          "internalType": "uint256",
          "name": "tableNumber",
          "type": "uint256"
        },
        {
          "internalType": "uint256",
          "name": "createdAt",
          "type": "uint256"
        },
        {
          "internalType": "uint256",
          "name": "updatedAt",
          "type": "uint256"
        }
      ],
      "stateMutability": "view",
      "type": "function"
    },
    {
      "inputs": [],
      "name": "owner",
      "outputs": [
        {
          "internalType": "address",
          "name": "",
          "type": "address"
        }
      ],
      "stateMutability": "view",
      "type": "function"
    },
    {
      "inputs": [
        {
          "internalType": "uint256[]",
          "name": "_itemIds",
          "type": "uint256[]"
        },
        {
          "internalType": "uint256[]",
          "name": "_quantities",
          "type": "uint256[]"
        },
        {
          "internalType": "uint256",
          "name": "_tableNumber",
          "type": "uint256"
        }
      ],
      "name": "placeOrder",
      "outputs": [],
      "stateMutability": "payable",
      "type": "function"
    },
    {
      "inputs": [
        {
          "internalType": "address",
          "name": "_member",
          "type": "address"
        }
      ],
      "name": "removeStaff",
      "outputs": [],
      "stateMutability": "nonpayable",
      "type": "function"
    },
    {
      "inputs": [],
      "name": "reservationCount",
      "outputs": [
        {
          "internalType": "uint256",
          "name": "",
          "type": "uint256"
        }
      ],
      "stateMutability": "view",
      "type": "function"
    },
    {
      "inputs": [
        {
          "internalType": "uint256",
          "name": "",
          "type": "uint256"
        }
      ],
      "name": "reservations",
      "outputs": [
        {
          "internalType": "uint256",
          "name": "id",
          "type": "uint256"
        },
        {
          "internalType": "address",
          "name": "customer",
          "type": "address"
        },
        {
          "internalType": "uint256",
          "name": "tableId",
          "type": "uint256"
        },
        {
          "internalType": "uint256",
          "name": "partySize",
          "type": "uint256"
        },
        {
          "internalType": "uint256",
          "name": "reservationTime",
          "type": "uint256"
        },
        {
          "internalType": "enum RestaurantManager.ReservationStatus",
          "name": "status",
          "type": "uint8"
        },
        {
          "internalType": "string",
          "name": "customerName",
          "type": "string"
        },
        {
          "internalType": "string",
          "name": "contactInfo",
          "type": "string"
        }
      ],
      "stateMutability": "view",
      "type": "function"
    },
    {
      "inputs": [],
      "name": "tableCount",
      "outputs": [
        {
          "internalType": "uint256",
          "name": "",
          "type": "uint256"
        }
      ],
      "stateMutability": "view",
      "type": "function"
    },
    {
      "inputs": [
        {
          "internalType": "uint256",
          "name": "",
          "type": "uint256"
        }
      ],
      "name": "tables",
      "outputs": [
        {
          "internalType": "uint256",
          "name": "id",
          "type": "uint256"
        },
        {
          "internalType": "uint256",
          "name": "capacity",
          "type": "uint256"
        },
        {
          "internalType": "enum RestaurantManager.TableStatus",
          "name": "status",
          "type": "uint8"
        },
        {
          "internalType": "address",
          "name": "currentCustomer",
          "type": "address"
        }
      ],
      "stateMutability": "view",
      "type": "function"
    },
    {
      "inputs": [
        {
          "internalType": "uint256",
          "name": "_itemId",
          "type": "uint256"
        }
      ],
      "name": "toggleMenuItemAvailability",
      "outputs": [],
      "stateMutability": "nonpayable",
      "type": "function"
    },
    {
      "inputs": [
        {
          "internalType": "uint256",
          "name": "_itemId",
          "type": "uint256"
        },
        {
          "internalType": "string",
          "name": "_name",
          "type": "string"
        },
        {
          "internalType": "uint256",
          "name": "_price",
          "type": "uint256"
        },
        {
          "internalType": "bool",
          "name": "_isAvailable",
          "type": "bool"
        }
      ],
      "name": "updateMenuItem",
      "outputs": [],
      "stateMutability": "nonpayable",
      "type": "function"
    },
    {
      "inputs": [
        {
          "internalType": "uint256",
          "name": "_orderId",
          "type": "uint256"
        },
        {
          "internalType": "enum RestaurantManager.OrderStatus",
          "name": "_newStatus",
          "type": "uint8"
        }
      ],
      "name": "updateOrderStatus",
      "outputs": [],
      "stateMutability": "nonpayable",
      "type": "function"
    },
    {
      "inputs": [
        {
          "internalType": "uint256",
          "name": "_reservationId",
          "type": "uint256"
        },
        {
          "internalType": "enum RestaurantManager.ReservationStatus",
          "name": "_newStatus",
          "type": "uint8"
        }
      ],
      "name": "updateReservationStatus",
      "outputs": [],
      "stateMutability": "nonpayable",
      "type": "function"
    },
    {
      "inputs": [
        {
          "internalType": "uint256",
          "name": "_tableId",
          "type": "uint256"
        },
        {
          "internalType": "enum RestaurantManager.TableStatus",
          "name": "_newStatus",
          "type": "uint8"
        }
      ],
      "name": "updateTableStatus",
      "outputs": [],
      "stateMutability": "nonpayable",
      "type": "function"
    },
    {
      "inputs": [],
      "name": "withdrawFunds",
      "outputs": [],
      "stateMutability": "nonpayable",
      "type": "function"
    },
    {
      "stateMutability": "payable",
      "type": "receive"
    }
  ],
  "bytecode": "0x60806040523480156200001157600080fd5b50600080546001600160a01b0319163390811782558152600b60205260409020805460ff19166001179055620000486004620005a7565b620000546002620005a7565b620000606006620005a7565b6200006c6004620005a7565b620000786008620005a7565b620000e16040518060400160405280600881526020016711185b08109a185d60c21b815250604051806080016040528060418152602001620047696041913960408051808201909152600481526326b0b4b760e11b6020820152661c6bf5263400009062000699565b620001536040518060400160405280600e81526020016d4d6f6d6f2028537465616d65642960901b815250604051806080016040528060478152602001620046716047913960408051808201909152600781526629ba30b93a32b960c91b6020820152662386f26fc100009062000699565b620001c36040518060400160405280600c81526020016b4d6f6d6f202846726965642960a01b815250604051806060016040528060388152602001620047aa6038913960408051808201909152600781526629ba30b93a32b960c91b6020820152662aa1efb94e00009062000699565b6200022f6040518060400160405280600b81526020016a151a185ad85b1a4814d95d60aa1b815250604051806080016040528060438152602001620048246043913960408051808201909152600481526326b0b4b760e11b602082015266354a6ba7a180009062000699565b6200029e6040518060400160405280600e81526020016d213aba3a32b91021b434b1b5b2b760911b815250604051806080016040528060428152602001620047e26042913960408051808201909152600481526326b0b4b760e11b60208201526631bced02db00009062000699565b620003096040518060400160405280600a8152602001694c616d6220437572727960b01b815250604051806060016040528060378152602001620046b86037913960408051808201909152600481526326b0b4b760e11b6020820152663ff2e795f500009062000699565b6200037b60405180604001604052806011815260200170566567657461626c652042697279616e6960781b8152506040518060600160405280603c8152602001620046ef603c913960408051808201909152600481526326b0b4b760e11b6020820152662aa1efb94e00009062000699565b620003ed6040518060400160405280600e81526020016d53616d6f7361202832207063732960901b8152506040518060600160405280603281526020016200463f6032913960408051808201909152600781526629ba30b93a32b960c91b6020820152661550f7dca700009062000699565b6200045b6040518060400160405280600b81526020016a4d616e676f204c6173736960a81b8152506040518060600160405280602e8152602001620048a0602e91396040805180820190915260068152654472696e6b7360d01b6020820152660e35fa931a00009062000699565b620004c96040518060400160405280600b81526020016a4d6173616c61204368616960a81b815250604051806060016040528060398152602001620048ce603991396040805180820190915260068152654472696e6b7360d01b6020820152660aa87bee5380009062000699565b620005386040518060400160405280600b81526020016a23bab630b1102530b6bab760a91b8152506040518060600160405280603e81526020016200472b603e913960408051808201909152600781526611195cdcd95c9d60ca1b6020820152661550f7dca700009062000699565b620005a16040518060400160405280600581526020016425b432b2b960d91b815250604051806060016040528060398152602001620048676039913960408051808201909152600781526611195cdcd95c9d60ca1b60208201526611c37937e080009062000699565b620009e4565b60038054906000620005b983620007b4565b909155505060408051608081018252600380548083526020808401868152600085870181815260608701829052938152600790925294902083518155935160018086019190915590516002850180549495949193909260ff19909216919084908111156200062b576200062b620007dc565b021790555060609190910151600290910180546001600160a01b0390921661010002610100600160a81b03199092169190911790556003546040518281527f5dd2be7e860cd480c9fca11a751bc9c9093c2e0ea563a682f21c137a82e124839060200160405180910390a250565b60018054906000620006ab83620007b4565b90915550506040805160e081018252600180548083526020808401898152848601899052606085018890526080850187905260a085018490524260c0860152600092835260059091529390208251815592519192919082019062000710908262000897565b506040820151600282019062000727908262000897565b50606082015160038201556080820151600482019062000748908262000897565b5060a082015160058201805460ff191691151591909117905560c0909101516006909101556001546040517f1633bd78bc0386412eb5d62d775ece52717734917607d73ecceacc8cf8c1229190620007a690879086908690620009ab565b60405180910390a250505050565b600060018201620007d557634e487b7160e01b600052601160045260246000fd5b5060010190565b634e487b7160e01b600052602160045260246000fd5b634e487b7160e01b600052604160045260246000fd5b600181811c908216806200081d57607f821691505b6020821081036200083e57634e487b7160e01b600052602260045260246000fd5b50919050565b601f8211156200089257600081815260208120601f850160051c810160208610156200086d5750805b601f850160051c820191505b818110156200088e5782815560010162000879565b5050505b505050565b81516001600160401b03811115620008b357620008b3620007f2565b620008cb81620008c4845462000808565b8462000844565b602080601f831160018114620009035760008415620008ea5750858301515b600019600386901b1c1916600185901b1785556200088e565b600085815260208120601f198616915b82811015620009345788860151825594840194600190910190840162000913565b5085821015620009535787850151600019600388901b60f8161c191681555b5050505050600190811b01905550565b6000815180845260005b818110156200098b576020818501810151868301820152016200096d565b506000602082860101526020601f19601f83011685010191505092915050565b606081526000620009c0606083018662000963565b8460208401528281036040840152620009da818562000963565b9695505050505050565b613c4b80620009f46000396000f3fe6080604052600436106101fd5760003560e01c80637bea0d1c1161010d578063cb9daf98116100a0578063e84f756e1161006f578063e84f756e1461069f578063efba4f82146106b5578063f943eecd146106d5578063fbc6283314610702578063ffb3a9db1461072457600080fd5b8063cb9daf98146105fb578063d09ef2411461063a578063d3452a6214610667578063e0890e4b1461067d57600080fd5b8063c260edfd116100dc578063c260edfd1461055b578063c4522c921461057b578063c4feedc91461059b578063cb510e97146105bb57600080fd5b80637bea0d1c146104665780638da5cb5b14610488578063a85c38ef146104c0578063aab3196d1461053b57600080fd5b80632a5a8c6311610190578063522e4c8a1161015f578063522e4c8a146103a15780636654b4d0146103c15780636f9fb98a146103d457806370027897146103e757806371671bf21461040757600080fd5b80632a5a8c63146103235780633a5a52b3146103565780634155fc5b14610376578063508c22801461038c57600080fd5b806315daa5e6116101cc57806315daa5e6146102b85780631600c6cd146102d85780632453ffa8146102f857806324600fc31461030e57600080fd5b8063067cf8321461020957806308cf4c79146102465780630e622b91146102745780630fdfc4491461029657600080fd5b3661020457005b600080fd5b34801561021557600080fd5b50610229610224366004612f93565b610744565b60405161023d989796959493929190613025565b60405180910390f35b34801561025257600080fd5b506102666102613660046130b1565b6108a7565b60405190815260200161023d565b34801561028057600080fd5b506102896108d8565b60405161023d91906130db565b3480156102a257600080fd5b506102b66102b1366004613206565b6109f7565b005b3480156102c457600080fd5b506102b66102d336600461326d565b610aed565b3480156102e457600080fd5b506102666102f33660046130b1565b610bd4565b34801561030457600080fd5b5061026660025481565b34801561031a57600080fd5b506102b6610bf0565b34801561032f57600080fd5b5061034361033e366004612f93565b610c9c565b60405161023d97969594939291906132fe565b34801561036257600080fd5b506102b661037136600461335a565b610e73565b34801561038257600080fd5b5061026660035481565b34801561039857600080fd5b506102896111bd565b3480156103ad57600080fd5b506102b66103bc3660046133da565b611365565b6102b66103cf36600461347b565b611423565b3480156103e057600080fd5b5047610266565b3480156103f357600080fd5b506102b6610402366004612f93565b611983565b34801561041357600080fd5b50610456610422366004612f93565b60076020526000908152604090208054600182015460029092015490919060ff81169061010090046001600160a01b031684565b60405161023d94939291906134e7565b34801561047257600080fd5b5061047b611a1b565b60405161023d9190613605565b34801561049457600080fd5b506000546104a8906001600160a01b031681565b6040516001600160a01b03909116815260200161023d565b3480156104cc57600080fd5b506105286104db366004612f93565b6006602081905260009182526040909120805460018201546004830154600584015494840154600785015460089095015493956001600160a01b0390931694919360ff9093169290919087565b60405161023d9796959493929190613667565b34801561054757600080fd5b506102b66105563660046136af565b611bf3565b34801561056757600080fd5b506102b6610576366004612f93565b611e25565b34801561058757600080fd5b506102b66105963660046133da565b611ec5565b3480156105a757600080fd5b506102b66105b63660046136f0565b611f8c565b3480156105c757600080fd5b506105eb6105d63660046133da565b600b6020526000908152604090205460ff1681565b604051901515815260200161023d565b34801561060757600080fd5b5060015460025460035460045460408051948552602085019390935291830152606082015247608082015260a00161023d565b34801561064657600080fd5b5061065a610655366004612f93565b6120f6565b60405161023d9190613715565b34801561067357600080fd5b5061026660015481565b34801561068957600080fd5b5061069261228e565b60405161023d91906137a7565b3480156106ab57600080fd5b5061026660045481565b3480156106c157600080fd5b506102666106d03660046137fc565b61256a565b3480156106e157600080fd5b506106f56106f0366004612f93565b61263a565b60405161023d919061385f565b34801561070e57600080fd5b506107176128b4565b60405161023d9190613872565b34801561073057600080fd5b506102b661073f3660046136f0565b612b06565b600860205260009081526040902080546001820154600283015460038401546004850154600586015460068701805496976001600160a01b039096169694959394929360ff909216926107969061394d565b80601f01602080910402602001604051908101604052809291908181526020018280546107c29061394d565b801561080f5780601f106107e45761010080835404028352916020019161080f565b820191906000526020600020905b8154815290600101906020018083116107f257829003601f168201915b5050505050908060070180546108249061394d565b80601f01602080910402602001604051908101604052809291908181526020018280546108509061394d565b801561089d5780601f106108725761010080835404028352916020019161089d565b820191906000526020600020905b81548152906001019060200180831161088057829003601f168201915b5050505050905088565b600a60205281600052604060002081815481106108c357600080fd5b90600052602060002001600091509150505481565b606060006003546001600160401b038111156108f6576108f6613151565b60405190808252806020026020018201604052801561092f57816020015b61091c612e35565b8152602001906001900390816109145790505b50905060015b60035481116109f1576000818152600760209081526040918290208251608081018452815481526001820154928101929092526002810154919290919083019060ff16600381111561098957610989612fac565b600381111561099a5761099a612fac565b81526002919091015461010090046001600160a01b0316602090910152826109c3600184613997565b815181106109d3576109d36139b0565b602002602001018190525080806109e9906139c6565b915050610935565b50919050565b6000546001600160a01b0316331480610a1f5750336000908152600b602052604090205460ff165b610a445760405162461bcd60e51b8152600401610a3b906139df565b60405180910390fd5b83600081118015610a5757506001548111155b610a735760405162461bcd60e51b8152600401610a3b90613a0c565b600085815260056020526040902060018101610a8f8682613a88565b506003810184905560058101805460ff191684151517905560405186907fcd972cf31214a829dd8c26431adc9020b3a1520148e5f493563531782e6fa6ee90610add90889088908890613b47565b60405180910390a2505050505050565b6000546001600160a01b0316331480610b155750336000908152600b602052604090205460ff165b610b315760405162461bcd60e51b8152600401610a3b906139df565b6000845111610b725760405162461bcd60e51b815260206004820152600d60248201526c13985b59481c995c5d5a5c9959609a1b6044820152606401610a3b565b60008211610bc25760405162461bcd60e51b815260206004820152601c60248201527f5072696365206d7573742062652067726561746572207468616e2030000000006044820152606401610a3b565b610bce84848484612c45565b50505050565b600960205281600052604060002081815481106108c357600080fd5b6000546001600160a01b03163314610c1a5760405162461bcd60e51b8152600401610a3b90613b71565b4780610c5f5760405162461bcd60e51b81526020600482015260146024820152734e6f2066756e647320746f20776974686472617760601b6044820152606401610a3b565b600080546040516001600160a01b039091169183156108fc02918491818181858888f19350505050158015610c98573d6000803e3d6000fd5b5050565b60056020526000908152604090208054600182018054919291610cbe9061394d565b80601f0160208091040260200160405190810160405280929190818152602001828054610cea9061394d565b8015610d375780601f10610d0c57610100808354040283529160200191610d37565b820191906000526020600020905b815481529060010190602001808311610d1a57829003601f168201915b505050505090806002018054610d4c9061394d565b80601f0160208091040260200160405190810160405280929190818152602001828054610d789061394d565b8015610dc55780601f10610d9a57610100808354040283529160200191610dc5565b820191906000526020600020905b815481529060010190602001808311610da857829003601f168201915b505050505090806003015490806004018054610de09061394d565b80601f0160208091040260200160405190810160405280929190818152602001828054610e0c9061394d565b8015610e595780601f10610e2e57610100808354040283529160200191610e59565b820191906000526020600020905b815481529060010190602001808311610e3c57829003601f168201915b505050506005830154600690930154919260ff1691905087565b84600081118015610e8657506003548111155b610ec45760405162461bcd60e51b815260206004820152600f60248201526e1518589b19481b9bdd08199bdd5b99608a1b6044820152606401610a3b565b60008511610f1e5760405162461bcd60e51b815260206004820152602160248201527f50617274792073697a65206d7573742062652067726561746572207468616e206044820152600360fc1b6064820152608401610a3b565b428411610f7c5760405162461bcd60e51b815260206004820152602660248201527f5265736572766174696f6e2074696d65206d75737420626520696e207468652060448201526566757475726560d01b6064820152608401610a3b565b600086815260076020526040902060010154851115610fe75760405162461bcd60e51b815260206004820152602160248201527f50617274792073697a652065786365656473207461626c6520636170616369746044820152607960f81b6064820152608401610a3b565b60008351116110315760405162461bcd60e51b815260206004820152601660248201527510dd5cdd1bdb595c881b985b59481c995c5d5a5c995960521b6044820152606401610a3b565b60048054906000611041836139c6565b90915550506040805161010081018252600480548083523360208085019182528486018c8152606086018c8152608087018c8152600060a0890181815260c08a018e905260e08a018d9052968152600890945297909220865181559251600180850180546001600160a01b0319166001600160a01b03909316929092179091559051600284015590516003808401919091559551938201939093559051600582018054949592949193909260ff1990921691849081111561110457611104612fac565b021790555060c0820151600682019061111d9082613a88565b5060e082015160078201906111329082613a88565b5050336000818152600a60209081526040808320600480548254600181018455928652848620909201919091558b845260078352928190206002908101805460ff19169091179055915482518b81529182018990529293507fb8c99be62a0da551ce2b2cae226283e450020875bb3409090ddf39ae054cc137910160405180910390a3505050505050565b6060600060015b60035481116112185760008181526007602052604081206002015460ff1660038111156111f3576111f3612fac565b036112065781611202816139c6565b9250505b80611210816139c6565b9150506111c4565b506000816001600160401b0381111561123357611233613151565b60405190808252806020026020018201604052801561126c57816020015b611259612e35565b8152602001906001900390816112515790505b509050600060015b600354811161135c5760008181526007602052604081206002015460ff1660038111156112a3576112a3612fac565b0361134a576000818152600760209081526040918290208251608081018452815481526001820154928101929092526002810154919290919083019060ff1660038111156112f3576112f3612fac565b600381111561130457611304612fac565b81526002919091015461010090046001600160a01b0316602090910152838361132c816139c6565b94508151811061133e5761133e6139b0565b60200260200101819052505b80611354816139c6565b915050611274565b50909392505050565b6000546001600160a01b0316331461138f5760405162461bcd60e51b8152600401610a3b90613b71565b6001600160a01b0381166113d75760405162461bcd60e51b815260206004820152600f60248201526e496e76616c6964206164647265737360881b6044820152606401610a3b565b6001600160a01b0381166000818152600b6020526040808220805460ff19166001179055517fe347a390ffd00a66c2003c5e078472c4c521081907f100a1cc7fe135560641f79190a250565b600083511161147e5760405162461bcd60e51b815260206004820152602160248201527f4f72646572206d7573742068617665206174206c65617374206f6e65206974656044820152606d60f81b6064820152608401610a3b565b81518351146114cf5760405162461bcd60e51b815260206004820152601d60248201527f4974656d7320616e64207175616e746974696573206d69736d617463680000006044820152606401610a3b565b6000811180156114e157506003548111155b6115245760405162461bcd60e51b815260206004820152601460248201527324b73b30b634b2103a30b1363290373ab6b132b960611b6044820152606401610a3b565b6000805b8451811015611708576000858281518110611545576115456139b0565b6020026020010151118015611575575060015485828151811061156a5761156a6139b0565b602002602001015111155b6115b55760405162461bcd60e51b8152602060048201526011602482015270496e76616c6964206d656e75206974656d60781b6044820152606401610a3b565b600560008683815181106115cb576115cb6139b0565b60209081029190910181015182528101919091526040016000206005015460ff1661162d5760405162461bcd60e51b81526020600482015260126024820152714974656d206e6f7420617661696c61626c6560701b6044820152606401610a3b565b6000848281518110611641576116416139b0565b6020026020010151116116965760405162461bcd60e51b815260206004820152601f60248201527f5175616e74697479206d7573742062652067726561746572207468616e2030006044820152606401610a3b565b8381815181106116a8576116a86139b0565b6020026020010151600560008784815181106116c6576116c66139b0565b60200260200101518152602001908152602001600020600301546116ea9190613b95565b6116f49083613bac565b915080611700816139c6565b915050611528565b50803410156117505760405162461bcd60e51b8152602060048201526014602482015273125b9cdd59999a58da595b9d081c185e5b595b9d60621b6044820152606401610a3b565b60028054906000611760836139c6565b909155505060408051610120810182526002548152336020820152908101859052606081018490526080810182905260a081016000815260208082018590524260408084018290526060909301526002805460009081526006835283902084518155848301516001820180546001600160a01b0319166001600160a01b039092169190911790559284015180516117ff93928501929190910190612e6e565b506060820151805161181b916003840191602090910190612e6e565b506080820151816004015560a08201518160050160006101000a81548160ff0219169083600581111561185057611850612fac565b021790555060c0820151600682015560e0820151600780830191909155610100928301516008909201919091553360008181526009602090815260408083206002805482546001808201855593875285872001558985529590925290912090920180546001600160a81b03191691909302171790553481101561190557336108fc6118db8334613997565b6040518115909202916000818181858888f19350505050158015611903573d6000803e3d6000fd5b505b60025460408051838152602081018590523392917f59827a9898740dc87f0e01c9f27ae034611bb083f06d7eb3efaef27336e3c4dd910160405180910390a36002546040518281523391907f4d3f6d68b42e1e039d6e7323b2b8bdeaf223f453882ce17a5984f4d6aabbdb339060200160405180910390a350505050565b6000546001600160a01b03163314806119ab5750336000908152600b602052604090205460ff165b6119c75760405162461bcd60e51b8152600401610a3b906139df565b806000811180156119da57506001548111155b6119f65760405162461bcd60e51b8152600401610a3b90613a0c565b50600090815260056020819052604090912001805460ff19811660ff90911615179055565b606060006002546001600160401b03811115611a3957611a39613151565b604051908082528060200260200182016040528015611a7257816020015b611a5f612eb9565b815260200190600190039081611a575790505b50905060015b60025481116109f1576000818152600660209081526040918290208251610120810184528154815260018201546001600160a01b03168184015260028201805485518186028101860187528181529295939493860193830182828015611afd57602002820191906000526020600020905b815481526020019060010190808311611ae9575b5050505050815260200160038201805480602002602001604051908101604052809291908181526020018280548015611b5557602002820191906000526020600020905b815481526020019060010190808311611b41575b50505091835250506004820154602082015260058083015460409092019160ff1690811115611b8657611b86612fac565b6005811115611b9757611b97612fac565b8152600682015460208201526007820154604082015260089091015460609091015282611bc5600184613997565b81518110611bd557611bd56139b0565b60200260200101819052508080611beb906139c6565b915050611a78565b6000546001600160a01b0316331480611c1b5750336000908152600b602052604090205460ff165b611c375760405162461bcd60e51b8152600401610a3b906139df565b81600081118015611c4a57506002548111155b611c885760405162461bcd60e51b815260206004820152600f60248201526e13dc99195c881b9bdd08199bdd5b99608a1b6044820152606401610a3b565b600083815260066020526040902060058082015460ff1681811115611caf57611caf612fac565b03611cfc5760405162461bcd60e51b815260206004820152601d60248201527f43616e6e6f74207570646174652063616e63656c6c6564206f726465720000006044820152606401610a3b565b600460058083015460ff1690811115611d1757611d17612fac565b03611d645760405162461bcd60e51b815260206004820152601760248201527f4f7264657220616c72656164792064656c6976657265640000000000000000006044820152606401610a3b565b828160050160006101000a81548160ff02191690836005811115611d8a57611d8a612fac565b02179055504260088201556004836005811115611da957611da9612fac565b03611de7576006810180546000908152600760205260408082206002908101805460ff19169055925482529020018054610100600160a81b03191690555b837fd9a86b644eb5f5b43cc8a700849852481080361c7a4b00ba646d1b46c5585f9584604051611e179190613bbf565b60405180910390a250505050565b6000546001600160a01b0316331480611e4d5750336000908152600b602052604090205460ff165b611e695760405162461bcd60e51b8152600401610a3b906139df565b60008111611eb95760405162461bcd60e51b815260206004820152601f60248201527f4361706163697479206d7573742062652067726561746572207468616e2030006044820152606401610a3b565b611ec281612d48565b50565b6000546001600160a01b03163314611eef5760405162461bcd60e51b8152600401610a3b90613b71565b6000546001600160a01b0390811690821603611f435760405162461bcd60e51b815260206004820152601360248201527221b0b73737ba103932b6b7bb329037bbb732b960691b6044820152606401610a3b565b6001600160a01b0381166000818152600b6020526040808220805460ff19169055517fbe0c9c04c8b745ee47e5f1102a51b7adffc957970fe9242ff6c0793adc748b1e9190a250565b6000546001600160a01b0316331480611fb45750336000908152600b602052604090205460ff165b611fd05760405162461bcd60e51b8152600401610a3b906139df565b600082118015611fe257506004548211155b6120265760405162461bcd60e51b815260206004820152601560248201527414995cd95c9d985d1a5bdb881b9bdd08199bdd5b99605a1b6044820152606401610a3b565b6000828152600860205260409020600501805482919060ff1916600183600381111561205457612054612fac565b0217905550600281600381111561206d5761206d612fac565b148061208a5750600381600381111561208857612088612fac565b145b156120ba5760008281526008602090815260408083206002908101548452600790925290912001805460ff191690555b817ff8942e9a88a74394667fecf767e1ae5ad717d3ea76933fd39382daa3ae0e15ee826040516120ea9190613bcd565b60405180910390a25050565b6120fe612eb9565b8160008111801561211157506002548111155b61214f5760405162461bcd60e51b815260206004820152600f60248201526e13dc99195c881b9bdd08199bdd5b99608a1b6044820152606401610a3b565b6000838152600660209081526040918290208251610120810184528154815260018201546001600160a01b031681840152600282018054855181860281018601875281815292959394938601938301828280156121cb57602002820191906000526020600020905b8154815260200190600101908083116121b7575b505050505081526020016003820180548060200260200160405190810160405280929190818152602001828054801561222357602002820191906000526020600020905b81548152602001906001019080831161220f575b50505091835250506004820154602082015260058083015460409092019160ff169081111561225457612254612fac565b600581111561226557612265612fac565b815260068201546020820152600782015460408201526008909101546060909101529392505050565b606060006001546001600160401b038111156122ac576122ac613151565b60405190808252806020026020018201604052801561231f57816020015b61230c6040518060e001604052806000815260200160608152602001606081526020016000815260200160608152602001600015158152602001600081525090565b8152602001906001900390816122ca5790505b50905060015b60015481116109f157600560008281526020019081526020016000206040518060e0016040529081600082015481526020016001820180546123669061394d565b80601f01602080910402602001604051908101604052809291908181526020018280546123929061394d565b80156123df5780601f106123b4576101008083540402835291602001916123df565b820191906000526020600020905b8154815290600101906020018083116123c257829003601f168201915b505050505081526020016002820180546123f89061394d565b80601f01602080910402602001604051908101604052809291908181526020018280546124249061394d565b80156124715780601f1061244657610100808354040283529160200191612471565b820191906000526020600020905b81548152906001019060200180831161245457829003601f168201915b50505050508152602001600382015481526020016004820180546124949061394d565b80601f01602080910402602001604051908101604052809291908181526020018280546124c09061394d565b801561250d5780601f106124e25761010080835404028352916020019161250d565b820191906000526020600020905b8154815290600101906020018083116124f057829003601f168201915b5050509183525050600582015460ff16151560208201526006909101546040909101528261253c600184613997565b8151811061254c5761254c6139b0565b60200260200101819052508080612562906139c6565b915050612325565b6000805b835181101561263357600084828151811061258b5761258b6139b0565b60200260200101511180156125bb57506001548482815181106125b0576125b06139b0565b602002602001015111155b15612621578281815181106125d2576125d26139b0565b6020026020010151600560008684815181106125f0576125f06139b0565b60200260200101518152602001908152602001600020600301546126149190613b95565b61261e9083613bac565b91505b8061262b816139c6565b91505061256e565b5092915050565b61267c6040518060e001604052806000815260200160608152602001606081526020016000815260200160608152602001600015158152602001600081525090565b8160008111801561268f57506001548111155b6126ab5760405162461bcd60e51b8152600401610a3b90613a0c565b600560008481526020019081526020016000206040518060e0016040529081600082015481526020016001820180546126e39061394d565b80601f016020809104026020016040519081016040528092919081815260200182805461270f9061394d565b801561275c5780601f106127315761010080835404028352916020019161275c565b820191906000526020600020905b81548152906001019060200180831161273f57829003601f168201915b505050505081526020016002820180546127759061394d565b80601f01602080910402602001604051908101604052809291908181526020018280546127a19061394d565b80156127ee5780601f106127c3576101008083540402835291602001916127ee565b820191906000526020600020905b8154815290600101906020018083116127d157829003601f168201915b50505050508152602001600382015481526020016004820180546128119061394d565b80601f016020809104026020016040519081016040528092919081815260200182805461283d9061394d565b801561288a5780601f1061285f5761010080835404028352916020019161288a565b820191906000526020600020905b81548152906001019060200180831161286d57829003601f168201915b5050509183525050600582015460ff16151560208201526006909101546040909101529392505050565b606060006004546001600160401b038111156128d2576128d2613151565b60405190808252806020026020018201604052801561290b57816020015b6128f8612f1f565b8152602001906001900390816128f05790505b50905060015b60045481116109f1576000818152600860209081526040918290208251610100810184528154815260018201546001600160a01b031692810192909252600281015492820192909252600380830154606083015260048301546080830152600583015491929160a084019160ff9091169081111561299157612991612fac565b60038111156129a2576129a2612fac565b81526020016006820180546129b69061394d565b80601f01602080910402602001604051908101604052809291908181526020018280546129e29061394d565b8015612a2f5780601f10612a0457610100808354040283529160200191612a2f565b820191906000526020600020905b815481529060010190602001808311612a1257829003601f168201915b50505050508152602001600782018054612a489061394d565b80601f0160208091040260200160405190810160405280929190818152602001828054612a749061394d565b8015612ac15780601f10612a9657610100808354040283529160200191612ac1565b820191906000526020600020905b815481529060010190602001808311612aa457829003601f168201915b50505050508152505082600183612ad89190613997565b81518110612ae857612ae86139b0565b60200260200101819052508080612afe906139c6565b915050612911565b6000546001600160a01b0316331480612b2e5750336000908152600b602052604090205460ff165b612b4a5760405162461bcd60e51b8152600401610a3b906139df565b81600081118015612b5d57506003548111155b612b9b5760405162461bcd60e51b815260206004820152600f60248201526e1518589b19481b9bdd08199bdd5b99608a1b6044820152606401610a3b565b6000838152600760205260409020600201805483919060ff19166001836003811115612bc957612bc9612fac565b02179055506000826003811115612be257612be2612fac565b03612c085760008381526007602052604090206002018054610100600160a81b03191690555b827f9c934f947420a2c7f5e6af7551cb548a8ef0cfad9c4afba7a5a5204f5deafad283604051612c389190613bcd565b60405180910390a2505050565b60018054906000612c55836139c6565b90915550506040805160e081018252600180548083526020808401898152848601899052606085018890526080850187905260a085018490524260c08601526000928352600590915293902082518155925191929190820190612cb89082613a88565b5060408201516002820190612ccd9082613a88565b506060820151600382015560808201516004820190612cec9082613a88565b5060a082015160058201805460ff191691151591909117905560c0909101516006909101556001546040517f1633bd78bc0386412eb5d62d775ece52717734917607d73ecceacc8cf8c1229190611e1790879086908690613be0565b60038054906000612d58836139c6565b909155505060408051608081018252600380548083526020808401868152600085870181815260608701829052938152600790925294902083518155935160018086019190915590516002850180549495949193909260ff1990921691908490811115612dc757612dc7612fac565b021790555060609190910151600290910180546001600160a01b0390921661010002610100600160a81b03199092169190911790556003546040518281527f5dd2be7e860cd480c9fca11a751bc9c9093c2e0ea563a682f21c137a82e124839060200160405180910390a250565b6040518060800160405280600081526020016000815260200160006003811115612e6157612e61612fac565b8152600060209091015290565b828054828255906000526020600020908101928215612ea9579160200282015b82811115612ea9578251825591602001919060010190612e8e565b50612eb5929150612f7e565b5090565b6040518061012001604052806000815260200160006001600160a01b0316815260200160608152602001606081526020016000815260200160006005811115612f0457612f04612fac565b81526020016000815260200160008152602001600081525090565b6040518061010001604052806000815260200160006001600160a01b0316815260200160008152602001600081526020016000815260200160006003811115612f6a57612f6a612fac565b815260200160608152602001606081525090565b5b80821115612eb55760008155600101612f7f565b600060208284031215612fa557600080fd5b5035919050565b634e487b7160e01b600052602160045260246000fd5b60048110611ec257611ec2612fac565b612fdb81612fc2565b9052565b6000815180845260005b8181101561300557602081850181015186830182015201612fe9565b506000602082860101526020601f19601f83011685010191505092915050565b8881526001600160a01b0388166020820152604081018790526060810186905260808101859052600061010061305a86612fc2565b8560a08401528060c084015261307281840186612fdf565b905082810360e08401526130868185612fdf565b9b9a5050505050505050505050565b80356001600160a01b03811681146130ac57600080fd5b919050565b600080604083850312156130c457600080fd5b6130cd83613095565b946020939093013593505050565b602080825282518282018190526000919060409081850190868401855b828110156131445781518051855286810151878601528581015161311b81612fc2565b858701526060908101516001600160a01b031690850152608090930192908501906001016130f8565b5091979650505050505050565b634e487b7160e01b600052604160045260246000fd5b604051601f8201601f191681016001600160401b038111828210171561318f5761318f613151565b604052919050565b600082601f8301126131a857600080fd5b81356001600160401b038111156131c1576131c1613151565b6131d4601f8201601f1916602001613167565b8181528460208386010111156131e957600080fd5b816020850160208301376000918101602001919091529392505050565b6000806000806080858703121561321c57600080fd5b8435935060208501356001600160401b0381111561323957600080fd5b61324587828801613197565b935050604085013591506060850135801515811461326257600080fd5b939692955090935050565b6000806000806080858703121561328357600080fd5b84356001600160401b038082111561329a57600080fd5b6132a688838901613197565b955060208701359150808211156132bc57600080fd5b6132c888838901613197565b94506040870135935060608701359150808211156132e557600080fd5b506132f287828801613197565b91505092959194509250565b87815260e06020820152600061331760e0830189612fdf565b82810360408401526133298189612fdf565b905086606084015282810360808401526133438187612fdf565b94151560a0840152505060c0015295945050505050565b600080600080600060a0868803121561337257600080fd5b85359450602086013593506040860135925060608601356001600160401b038082111561339e57600080fd5b6133aa89838a01613197565b935060808801359150808211156133c057600080fd5b506133cd88828901613197565b9150509295509295909350565b6000602082840312156133ec57600080fd5b6133f582613095565b9392505050565b600082601f83011261340d57600080fd5b813560206001600160401b0382111561342857613428613151565b8160051b613437828201613167565b928352848101820192828101908785111561345157600080fd5b83870192505b8483101561347057823582529183019190830190613457565b979650505050505050565b60008060006060848603121561349057600080fd5b83356001600160401b03808211156134a757600080fd5b6134b3878388016133fc565b945060208601359150808211156134c957600080fd5b506134d6868287016133fc565b925050604084013590509250925092565b84815260208101849052608081016134fe84612fc2565b60408201939093526001600160a01b039190911660609091015292915050565b600081518084526020808501945080840160005b8381101561354e57815187529582019590820190600101613532565b509495945050505050565b60068110612fdb57612fdb612fac565b600061012082518452602083015161358c60208601826001600160a01b03169052565b5060408301518160408601526135a48286018261351e565b915050606083015184820360608601526135be828261351e565b9150506080830151608085015260a08301516135dd60a0860182613559565b5060c0838101519085015260e080840151908501526101009283015192909301919091525090565b6000602080830181845280855180835260408601915060408160051b870101925083870160005b8281101561365a57603f19888603018452613648858351613569565b9450928501929085019060010161362c565b5092979650505050505050565b8781526001600160a01b03871660208201526040810186905260e081016136916060830187613559565b8460808301528360a08301528260c083015298975050505050505050565b600080604083850312156136c257600080fd5b823591506020830135600681106136d857600080fd5b809150509250929050565b60048110611ec257600080fd5b6000806040838503121561370357600080fd5b8235915060208301356136d8816136e3565b6020815260006133f56020830184613569565b805182526000602082015160e0602085015261374760e0850182612fdf565b9050604083015184820360408601526137608282612fdf565b91505060608301516060850152608083015184820360808601526137848282612fdf565b91505060a0830151151560a085015260c083015160c08501528091505092915050565b6000602080830181845280855180835260408601915060408160051b870101925083870160005b8281101561365a57603f198886030184526137ea858351613728565b945092850192908501906001016137ce565b6000806040838503121561380f57600080fd5b82356001600160401b038082111561382657600080fd5b613832868387016133fc565b9350602085013591508082111561384857600080fd5b50613855858286016133fc565b9150509250929050565b6020815260006133f56020830184613728565b60006020808301818452808551808352604092508286019150828160051b87010184880160005b8381101561393f57888303603f19018552815180518452878101516001600160a01b0316888501528681015187850152606080820151908501526080808201519085015260a08082015161010091906138f482880182612fd2565b505060c080830151828288015261390d83880182612fdf565b9250505060e0808301519250858203818701525061392b8183612fdf565b968901969450505090860190600101613899565b509098975050505050505050565b600181811c9082168061396157607f821691505b6020821081036109f157634e487b7160e01b600052602260045260246000fd5b634e487b7160e01b600052601160045260246000fd5b818103818111156139aa576139aa613981565b92915050565b634e487b7160e01b600052603260045260246000fd5b6000600182016139d8576139d8613981565b5060010190565b60208082526013908201527227b7363c9039ba30b3331037b91037bbb732b960691b604082015260600190565b60208082526013908201527213595b9d481a5d195b481b9bdd08199bdd5b99606a1b604082015260600190565b601f821115613a8357600081815260208120601f850160051c81016020861015613a605750805b601f850160051c820191505b81811015613a7f57828155600101613a6c565b5050505b505050565b81516001600160401b03811115613aa157613aa1613151565b613ab581613aaf845461394d565b84613a39565b602080601f831160018114613aea5760008415613ad25750858301515b600019600386901b1c1916600185901b178555613a7f565b600085815260208120601f198616915b82811015613b1957888601518255948401946001909101908401613afa565b5085821015613b375787850151600019600388901b60f8161c191681555b5050505050600190811b01905550565b606081526000613b5a6060830186612fdf565b602083019490945250901515604090910152919050565b6020808252600a908201526927b7363c9037bbb732b960b11b604082015260600190565b80820281158282048414176139aa576139aa613981565b808201808211156139aa576139aa613981565b602081016139aa8284613559565b60208101613bda83612fc2565b91905290565b606081526000613bf36060830186612fdf565b8460208401528281036040840152613c0b8185612fdf565b969550505050505056fea264697066735822122035ad996f6abef47da297865fe33067edd310d360c508b0d847ca75895832e19764736f6c63430008130033437269737079207061737472792066696c6c656420776974682073706963656420706f7461746f657320616e64207065617348616e646d6164652064756d706c696e67732066696c6c656420776974682073706963656420636869636b656e2c20736572766564207769746820746f6d61746f206163686172536c6f772d636f6f6b6564206c616d6220776974682048696d616c6179616e2073706963657320616e64206261736d617469207269636541726f6d61746963206261736d61746920726963652077697468206d6978656420766567657461626c657320616e64206672696564206f6e696f6e73536f6674206d696c6b2d736f6c69642064756d706c696e677320736f616b656420696e20726f73652d666c61766f75726564207375676172207379727570547261646974696f6e616c206c656e74696c20736f7570207769746820737465616d6564207269636520616e6420736561736f6e616c20766567657461626c65734372697370792066726965642064756d706c696e67732066696c6c6564207769746820766567657461626c6573206f7220636869636b656e54656e64657220636869636b656e20696e2061207269636820746f6d61746f20616e64206275747465722073617563652c207365727665642077697468206e61616e46756c6c204e6570616c65736520736574206d65616c207769746820726963652c206c656e74696c732c2063757272792c207069636b6c6520616e6420677265656e73437265616d7920726963652070756464696e6720776974682063617264616d6f6d2c2073616666726f6e20616e642070697374616368696f734368696c6c656420796f6768757274206472696e6b20626c656e6465642077697468206672657368206d616e676f537069636564204e6570616c657365207465612062726577656420776974682067696e6765722c2063617264616d6f6d20616e64206d696c6b",
  "linkReferences": {},
  "deployedLinkReferences": {}
}